:10083B00024C0000024E0000014B00012E00012F64
:07084B0000014900014A0011
:050853002DF8E6F59907
:0C085800E4FFE4FE0EBEFFFC0FBFFFF645
:010864002271
:03000300020006F2
:07000600754901754A003243
:030013000208657B
:07086500754A0175490032DC
:10079700E4F5347D02ED25E02408F8E6FE08E625B9
:1007A700E0FFEE33FEED25E0240AF8E6FA08E6FB63
:1007B700D39FEE6480F8EA648098400874332DF87C
:1007C70076018033EB25E0FFEA33FEED25E02408D0
:1007D700F8E6FA08E6FBC3EF9BEA6480F8EE64806C
:1007E70098500874332DF8E4F6800C74322DF8E62F
:0D07F700FF74332DF8A6070DED6413709804
:0108040022D1
:10001600E5367017E5387013E53AB4010EE53CB4E1
:100026000109E53E7005F530020126E536B40117F3
:10003600E5387013E53A700FE53C700BE53EB40108
:1000460006753001020126E5367018E538B401134D
:10005600E53A700FE53C700BE53EB40106753002DB
:10006600020126E536B40117E538B40112E53A7007
:100076000EE53C700AE53E7006753003020126E582
:10008600367018E5387014E53AB4010FE53C700B8C
:10009600E53EB40106753004020126E536B40116C4
:1000A600E5387012E53AB4010DE53C7009E53E709D
:1000B60005753005806AE5367017E538B40112E536
:1000C6003AB4010DE53C7009E53E700575300680D1
:1000D6004FE5367017E5387013E53A700FE53CB416
:1000E600010AE53EB401057530078034E536B401F2
:1000F60016E5387012E53A700EE53CB40109E53EA6
:1001060070057530088019E5367015E538B40110AC
:10011600E53A700CE53CB40107E53E70037530091D
:10012600E5377017E5397013E53BB4010EE53DB4CC
:100136000109E53F7005F531020236E537B40117CE
:10014600E5397013E53B700FE53D700BE53FB401F3
:1001560006753101020236E5377018E539B4011328
:10016600E53B700FE53D700BE53FB40106753102C6
:10017600020236E537B40117E539B40112E53B70E2
:100186000EE53D700AE53F7006753103020236E55D
:10019600377018E5397014E53BB4010FE53D700B77
:1001A600E53FB40106753104020236E537B401169F
:1001B600E5397012E53BB4010DE53D7009E53F7088
:1001C60005753105806AE5377017E539B40112E522
:1001D6003BB4010DE53D7009E53F700575310680BC
:1001E6004FE5377017E5397013E53B700FE53DB401
:1001F600010AE53FB401057531078034E537B401DE
:1002060016E5397012E53B700EE53DB40109E53F90
:1002160070057531088019E5377015E539B4011098
:10022600E53B700CE53DB40107E53F700375310908
:10023600E5387017E53A7013E53CB4010EE53EB4B7
:100246000109E5407005F545020346E538B4011796
:10025600E53A7013E53C700FE53E700BE540B401DE
:1002660006754501020346E5387018E53AB40113F0
:10027600E53C700FE53E700BE540B401067545029E
:10028600020346E538B40117E53AB40112E53C70BD
:100296000EE53E700AE5407006754503020346E525
:1002A600387018E53A7014E53CB4010FE53E700B62
:1002B600E540B40106754504020346E538B4011667
:1002C600E53A7012E53CB4010DE53E7009E5407073
:1002D60005754505806AE5387017E53AB40112E5FB
:1002E6003CB4010DE53E7009E54070057545068094
:1002F6004FE5387017E53A7013E53C700FE53EB4EC
:10030600010AE540B401057545078034E538B401B6
:1003160016E53A7012E53C700EE53EB40109E5407B
:1003260070057545088019E5387015E53AB4011071
:10033600E53C700CE53EB40107E5407003754509E0
:10034600E5397017E53B7013E53DB4010EE53FB4A2
:100356000109E5417005F546020456E539B4011771
:10036600E53B7013E53D700FE53F700BE541B401C9
:1003760006754601020456E5397018E53BB40113CB
:10038600E53D700FE53F700BE541B4010675460289
:10039600020456E539B40117E53BB40112E53D7098
:1003A6000EE53F700AE5417006754603020456E500
:1003B600397018E53B7014E53DB4010FE53F700B4D
:1003C600E541B40106754604020456E539B4011642
:1003D600E53B7012E53DB4010DE53F7009E541705E
:1003E60005754605806AE5397017E53BB40112E5E7
:1003F6003DB4010DE53F7009E5417005754606807F
:100406004FE5397017E53B7013E53D700FE53FB4D6
:10041600010AE541B401057546078034E539B401A2
:1004260016E53B7012E53D700EE53FB40109E54166
:1004360070057546088019E5397015E53BB401105D
:10044600E53D700CE53FB40107E5417003754609CB
:10045600E53A7017E53C7013E53EB4010EE540B48D
:100466000109E5427005F547020566E53AB401174C
:10047600E53C7013E53E700FE540700BE542B401B4
:1004860006754701020566E53A7018E53CB40113A6
:10049600E53E700FE540700BE542B4010675470274
:1004A600020566E53AB40117E53CB40112E53E7073
:1004B6000EE540700AE5427006754703020566E5DB
:1004C6003A7018E53C7014E53EB4010FE540700B38
:1004D600E542B40106754704020566E53AB401161D
:1004E600E53C7012E53EB4010DE5407009E5427049
:1004F60005754705806AE53A7017E53CB40112E5D3
:100506003EB4010DE5407009E54270057547068069
:100516004FE53A7017E53C7013E53E700FE540B4C1
:10052600010AE542B401057547078034E53AB4018E
:1005360016E53C7012E53E700EE540B40109E54251
:1005460070057547088019E53A7015E53CB4011049
:10055600E53E700CE540B40107E5427003754709B6
:10056600E53B7015E53D7011E53FB4010CE541B47E
:100576000107E5437003F54822E53BB40115E53D67
:100586007011E53F700DE5417009E543B40104754E
:10059600480122E53B7016E53DB40111E53F700DBB
:1005A600E5417009E543B4010475480222E53BB410
:1005B6000115E53DB40110E53F700CE5417008E515
:1005C60043700475480322E53B7016E53D7012E55D
:1005D6003FB4010DE5417009E543B40104754804D3
:1005E60022E53BB40115E53D7011E53FB4010CE58C
:1005F600417008E543700475480522E53B7016E531
:100606003DB40111E53FB4010CE5417008E54370C6
:100616000475480622E53B7016E53D7012E53F700D
:100626000EE541B40109E543B4010475480722E526
:100636003BB40115E53D7011E53F700DE541B40190
:1006460008E543700475480822E53B7015E53DB49E
:100656000110E53F700CE541B40107E543700375F1
:030666004809221E
:10080500759850758920758780758DF3758BF3D232
:100815008EE4FD74301208530DBD02F7E4FD7445F6
:100825001208530DBD02F7E4FD74471208530DBDC0
:0508350002F7E4F54BA1
:01083A00229B
:10066900C2AFD2A8D2AAC2B8C2BAC2A9C2ABD288F2
:10067900D28AD2AFE54964017034E52E7030C29058
:10068900D297E54B25E02408F8A64C08A64DE4F5D9
:100699004CF54D054BE54BB41203752E01054FE59D
:1006A9004F7002054EE549B40104E52E60EFE54AB5
:1006B90064017034E52F7030D290C297E54B25E084
:1006C9002408F8A64E08A64FE4F54EF54F054BE56C
:1006D9004BB41203752F01054DE54D7002054CE52C
:1006E9004AB40104E52F60EFE54B64127086C2AF8E
:1006F900D290D297C29412079712001612080502D7
:02070900067D6B
:0300000002070BE9
:0C070B00787FE4F6D8FD75814F0207529C
:10071700020669E493A3F8E493A34003F68001F289
:1007270008DFF48029E493A3F85407240CC8C333E3
:10073700C4540F4420C8834004F456800146F6DFB2
:10074700E4800B010204081020408090083BE47EFF
:10075700019360BCA3FF543F30E509541FFEE493A7
:10076700A360010ECF54C025E060A840B8E493A36E
:10077700FAE493A3F8E493A3C8C582C8CAC583CA99
:10078700F0A3C8C582C8CAC583CADFE9DEE780BE51
:0108520000A5
:00000001FF
